S00C00004750494F2E73726563E9
S11300000C942A000C9434000C9434000C943400A6
S11300100C9434000C9434000C9434000C9434008C
S11300200C9434000C9434000C9434000C9434007C
S11300300C9434000C9434000C9434000C9434006C
S11300400C9434000C9434000C9434000C9434005C
S11300500C94340011241FBECFE5D8E0DEBFCDBF21
S11300600E949C000C94C2000C94000041E00E9489
S11300705600089541E00E947900089540E00E94EE
S113008079000895E82FF0E0928141E050E09A0170
S1130090062E02C0220F331F0A94E2F7292319F017
S11300A00E943E0008950E943A000895442389F076
S11300B04130F1F4E82FF0E0218181E090E0AC01DF
S11300C002C0440F551F6A95E2F7BA01622B61839F
S11300D00895E82FF0E0218181E090E0AC0102C0B6
S11300E0440F551F6A95E2F7BA0160956223618354
S11300F00895442389F04130F1F4E82FF0E022819F
S113010081E090E0AC0102C0440F551F6A95E2F70C
S1130110BA01622B62830895E82FF0E0228181E026
S113012090E0AC0102C0440F551F6A95E2F7BA0192
S1130130609562236283089565E080E30E9436003F
S113014065E080E30E943A0066E080E30E943600A6
S113015066E080E30E943A0067E080E30E94360094
S113016067E080E30E943A002FE38DE093E02150A2
S113017080409040E1F700C0000065E080E30E9409
S10B01804200F2CFF894FFCF16
S9030000FC
